{
  "contractName": "Auction",
  "abi": [
    {
      "inputs": [],
      "payable": false,
      "stateMutability": "nonpayable",
      "type": "constructor"
    },
    {
      "anonymous": false,
      "inputs": [
        {
          "indexed": false,
          "internalType": "string",
          "name": "_message",
          "type": "string"
        },
        {
          "indexed": false,
          "internalType": "address",
          "name": "winner",
          "type": "address"
        }
      ],
      "name": "Result",
      "type": "event"
    },
    {
      "anonymous": false,
      "inputs": [
        {
          "indexed": false,
          "internalType": "string",
          "name": "_message",
          "type": "string"
        }
      ],
      "name": "Status",
      "type": "event"
    },
    {
      "constant": true,
      "inputs": [],
      "name": "highestBidder",
      "outputs": [
        {
          "internalType": "address payable",
          "name": "",
          "type": "address"
        }
      ],
      "payable": false,
      "stateMutability": "view",
      "type": "function"
    },
    {
      "constant": true,
      "inputs": [],
      "name": "highestPrice",
      "outputs": [
        {
          "internalType": "uint256",
          "name": "",
          "type": "uint256"
        }
      ],
      "payable": false,
      "stateMutability": "view",
      "type": "function"
    },
    {
      "constant": true,
      "inputs": [],
      "name": "newOwner",
      "outputs": [
        {
          "internalType": "address",
          "name": "",
          "type": "address"
        }
      ],
      "payable": false,
      "stateMutability": "view",
      "type": "function"
    },
    {
      "constant": true,
      "inputs": [],
      "name": "originalOwner",
      "outputs": [
        {
          "internalType": "address payable",
          "name": "",
          "type": "address"
        }
      ],
      "payable": false,
      "stateMutability": "view",
      "type": "function"
    },
    {
      "constant": false,
      "inputs": [],
      "name": "bid",
      "outputs": [],
      "payable": true,
      "stateMutability": "payable",
      "type": "function"
    },
    {
      "constant": false,
      "inputs": [],
      "name": "checkIfAuctionEnded",
      "outputs": [],
      "payable": false,
      "stateMutability": "nonpayable",
      "type": "function"
    },
    {
      "constant": false,
      "inputs": [],
      "name": "stopAuction",
      "outputs": [],
      "payable": false,
      "stateMutability": "nonpayable",
      "type": "function"
    },
    {
      "constant": true,
      "inputs": [],
      "name": "getAuctionInfo",
      "outputs": [
        {
          "internalType": "string",
          "name": "",
          "type": "string"
        },
        {
          "internalType": "uint256",
          "name": "",
          "type": "uint256"
        },
        {
          "internalType": "uint256",
          "name": "",
          "type": "uint256"
        }
      ],
      "payable": false,
      "stateMutability": "view",
      "type": "function"
    },
    {
      "constant": true,
      "inputs": [],
      "name": "getHighestPrice",
      "outputs": [
        {
          "internalType": "uint256",
          "name": "",
          "type": "uint256"
        }
      ],
      "payable": false,
      "stateMutability": "view",
      "type": "function"
    },
    {
      "constant": true,
      "inputs": [],
      "name": "getHighestBidder",
      "outputs": [
        {
          "internalType": "address",
          "name": "",
          "type": "address"
        }
      ],
      "payable": false,
      "stateMutability": "view",
      "type": "function"
    },
    {
      "constant": true,
      "inputs": [],
      "name": "getDescription",
      "outputs": [
        {
          "internalType": "string",
          "name": "",
          "type": "string"
        }
      ],
      "payable": false,
      "stateMutability": "view",
      "type": "function"
    },
    {
      "constant": true,
      "inputs": [],
      "name": "getBasePrice",
      "outputs": [
        {
          "internalType": "uint256",
          "name": "",
          "type": "uint256"
        }
      ],
      "payable": false,
      "stateMutability": "view",
      "type": "function"
    },
    {
      "constant": true,
      "inputs": [],
      "name": "isActive",
      "outputs": [
        {
          "internalType": "bool",
          "name": "",
          "type": "bool"
        }
      ],
      "payable": false,
      "stateMutability": "view",
      "type": "function"
    }
  ],
  "bytecode": "0x608060405234801561001057600080fd5b50604051806080016040528060448152602001610f18604491396000908051906020019061003f929190610128565b50670de0b6b3a76400006001819055506103846002819055506001600860006101000a81548160ff0219169083151502179055504260038190555033600460006101000a81548173ffffffffffffffffffffffffffffffffffffffff021916908373ffffffffffffffffffffffffffffffffffffffff1602179055507f2844c95bf1b4598da931d527f903501abc60fe0199c65da52d5ce818c6c5e96160405180806020018281038252600e8152602001807f537562617374612063726561646100000000000000000000000000000000000081525060200191505060405180910390a16101cd565b828054600181600116156101000203166002900490600052602060002090601f016020900481019282601f1061016957805160ff1916838001178555610197565b82800160010185558215610197579182015b8281111561019657825182559160200191906001019061017b565b5b5090506101a491906101a8565b5090565b6101ca91905b808211156101c65760008160009055506001016101ae565b5090565b90565b610d3c806101dc6000396000f3fe6080604052600436106100c15760003560e01c806391f901571161007f578063cf1f297411610059578063cf1f2974146102d5578063d4ee1d90146102ec578063d94a350514610343578063f1fffdcb146103e1576100c1565b806391f9015714610228578063b49f4afd1461027f578063bc6f1f1b146102aa576100c1565b80623495a4146100c65780630e8670e01461011d5780631998aeef146101485780631a0925411461015257806322f3e2d4146101e2578063269b9a0814610211575b600080fd5b3480156100d257600080fd5b506100db610438565b604051808273ffffffffffffffffffffffffffffffffffffffff1673ffffffffffffffffffffffffffffffffffffffff16815260200191505060405180910390f35b34801561012957600080fd5b50610132610462565b6040518082815260200191505060405180910390f35b610150610468565b005b34801561015e57600080fd5b5061016761065a565b6040518080602001828103825283818151815260200191508051906020019080838360005b838110156101a757808201518184015260208101905061018c565b50505050905090810190601f1680156101d45780820380516001836020036101000a031916815260200191505b509250505060405180910390f35b3480156101ee57600080fd5b506101f76106fc565b604051808215151515815260200191505060405180910390f35b34801561021d57600080fd5b50610226610713565b005b34801561023457600080fd5b5061023d6108c4565b604051808273ffffffffffffffffffffffffffffffffffffffff1673ffffffffffffffffffffffffffffffffffffffff16815260200191505060405180910390f35b34801561028b57600080fd5b506102946108ea565b6040518082815260200191505060405180910390f35b3480156102b657600080fd5b506102bf6108f4565b6040518082815260200191505060405180910390f35b3480156102e157600080fd5b506102ea6108fe565b005b3480156102f857600080fd5b50610301610b73565b604051808273ffffffffffffffffffffffffffffffffffffffff1673ffffffffffffffffffffffffffffffffffffffff16815260200191505060405180910390f35b34801561034f57600080fd5b50610358610b99565b6040518080602001848152602001838152602001828103825285818151815260200191508051906020019080838360005b838110156103a4578082015181840152602081019050610389565b50505050905090810190601f1680156103d15780820380516001836020036101000a031916815260200191505b5094505050505060405180910390f35b3480156103ed57600080fd5b506103f6610c4d565b604051808273ffffffffffffffffffffffffffffffffffffffff1673ffffffffffffffffffffffffffffffffffffffff16815260200191505060405180910390f35b6000600660009054906101000a900473ffffffffffffffffffffffffffffffffffffffff16905090565b60075481565b6002546003540142118061048f575060001515600860009054906101000a900460ff161515145b156104a15761049c6108fe565b610658565b600754341180156104b3575060015434115b156105bb57600660009054906101000a900473ffffffffffffffffffffffffffffffffffffffff1673ffffffffffffffffffffffffffffffffffffffff166108fc6007549081150290604051600060405180830381858888f19350505050158015610522573d6000803e3d6000fd5b5033600660006101000a81548173ffffffffffffffffffffffffffffffffffffffff021916908373ffffffffffffffffffffffffffffffffffffffff160217905550346007819055507f2844c95bf1b4598da931d527f903501abc60fe0199c65da52d5ce818c6c5e96160405180806020018281038252603f815260200180610cc9603f913960400191505060405180910390a1610657565b7f2844c95bf1b4598da931d527f903501abc60fe0199c65da52d5ce818c6c5e961604051808060200182810382526034815260200180610c746034913960400191505060405180910390a16040517f08c379a0000000000000000000000000000000000000000000000000000000008152600401808060200182810382526034815260200180610c746034913960400191505060405180910390fd5b5b565b606060008054600181600116156101000203166002900480601f0160208091040260200160405190810160405280929190818152602001828054600181600116156101000203166002900480156106f25780601f106106c7576101008083540402835291602001916106f2565b820191906000526020600020905b8154815290600101906020018083116106d557829003601f168201915b5050505050905090565b6000600860009054906101000a900460ff16905090565b600460009054906101000a900473ffffffffffffffffffffffffffffffffffffffff1673ffffffffffffffffffffffffffffffffffffffff163373ffffffffffffffffffffffffffffffffffffffff16146107d6576040517f08c379a000000000000000000000000000000000000000000000000000000000815260040180806020018281038252601e8152602001807f596f75206d75737420626520746865206f726967696e616c204f574e4552000081525060200191505060405180910390fd5b6000600860006101000a81548160ff021916908315150217905550600660009054906101000a900473ffffffffffffffffffffffffffffffffffffffff1673ffffffffffffffffffffffffffffffffffffffff166108fc479081150290604051600060405180830381858888f19350505050158015610859573d6000803e3d6000fd5b507f2844c95bf1b4598da931d527f903501abc60fe0199c65da52d5ce818c6c5e9616040518080602001828103825260178152602001807f4c6120737562617374612073652068612070617261646f00000000000000000081525060200191505060405180910390a1565b600660009054906101000a900473ffffffffffffffffffffffffffffffffffffffff1681565b6000600154905090565b6000600754905090565b60025460035401421115610b03576000600860006101000a81548160ff021916908315150217905550600660009054906101000a900473ffffffffffffffffffffffffffffffffffffffff16600560006101000a81548173ffffffffffffffffffffffffffffffffffffffff021916908373ffffffffffffffffffffffffffffffffffffffff160217905550600460009054906101000a900473ffffffffffffffffffffffffffffffffffffffff1673ffffffffffffffffffffffffffffffffffffffff166108fc6007549081150290604051600060405180830381858888f193505050501580156109f4573d6000803e3d6000fd5b507f2844c95bf1b4598da931d527f903501abc60fe0199c65da52d5ce818c6c5e9616040518080602001828103825260188152602001807f4c6120737562617374612068612066696e616c697a61646f000000000000000081525060200191505060405180910390a17fbb9721a0a3c06497a88ed083ae73d825db6e63e077545032e06a18fecb27d8ab600660009054906101000a900473ffffffffffffffffffffffffffffffffffffffff1660405180806020018373ffffffffffffffffffffffffffffffffffffffff1673ffffffffffffffffffffffffffffffffffffffff16815260200182810382526021815260200180610ca8602191396040019250505060405180910390a1610b71565b6040517f08c379a00000000000000000000000000000000000000000000000000000000081526004018080602001828103825260168152602001807f4c6120737562617374612065737461206163746976610000000000000000000081525060200191505060405180910390fd5b565b600560009054906101000a900473ffffffffffffffffffffffffffffffffffffffff1681565b60606000806000600354600254828054600181600116156101000203166002900480601f016020809104026020016040519081016040528092919081815260200182805460018160011615610100020316600290048015610c3b5780601f10610c1057610100808354040283529160200191610c3b565b820191906000526020600020905b815481529060010190602001808311610c1e57829003601f168201915b50505050509250925092509250909192565b600460009054906101000a900473ffffffffffffffffffffffffffffffffffffffff168156fe4c612070756a61206e6f20657320706f7369626c652c206e6f206573206c6f20737566696369656e74656d656e746520616c7461456c2067616e61646f72206465206c612073756261737461206861207369646f3a4e756576612070756a61206d617320616c74612c20656c20756c74696d6f20706f73746f72207469656e652073752064696e65726f206465207675656c7461a265627a7a7231582053e1d1c8db9ed31cf47bb718718cfc7bccd02689696a8293af988bf14b7ba62964736f6c63430005100032456e20657374612073756261737461207365206f667265636520756e20636f6368652e20536520747261746120646520756e20466f726420466f637573206465202e2e2e",
  "source": "// Version de solidity del Smart Contract\n// SPDX-License-Identifier: UNLICENSED\n\npragma solidity >=0.4.22 <0.7.0;\n\n// Informacion del Smart Contract\n// Nombre: Subasta\n// Logica: Implementa subasta de productos entre varios participantes\n\n// Declaracion del Smart Contract - Auction\ncontract Auction {\n\n    // ----------- Variables (datos) -----------\n    // Información de la subasta\n    string private description;\n    uint private basePrice;\n    uint256 private secondsToEnd;\n    uint256 private createdTime;\n\n    // Antiguo/nuevo dueño de subasta\n    address payable public originalOwner;\n    address public newOwner;\n\n    // Puja mas alta\n    address payable public highestBidder;\n    uint public highestPrice;\n    \n    // Estado de la subasta\n    bool private activeContract;\n    \n    // ----------- Eventos (pueden ser emitidos por el Smart Contract) -----------\n    event Status(string _message);\n    event Result(string _message, address winner);\n\n    // ----------- Constructor -----------\n    // Uso: Inicializa el Smart Contract - Auction con: description, precio y tiempo\n    constructor() public {\n        \n        // Inicializo el valor a las variables (datos)\n        description = \"En esta subasta se ofrece un coche. Se trata de un Ford Focus de ...\";\n        basePrice = 1 ether;   \n        secondsToEnd = 900;   // 86400 = 24h | 3600 = 1h | 900 = 15 min | 600 = 10 min\n        activeContract = true;\n        createdTime = block.timestamp;\n        originalOwner = msg.sender;\n        \n        // Se emite un Evento\n        emit Status(\"Subasta creada\");\n    }\n    \n    // ------------ Funciones que modifican datos (set) ------------\n\n    // Funcion\n    // Nombre: bid\n    // Uso:    Permite a cualquier postor hacer una oferta de dinero para la subata\n    //         El dinero es almacenado en el contrato, junto con el nombre del postor\n    //         El postor cuya oferta ha sido superada recibe de vuelta el dinero pujado\n    function bid() public payable {\n        if(block.timestamp > (createdTime + secondsToEnd)  || activeContract == false){\n            checkIfAuctionEnded();\n        } else {\n            if (msg.value > highestPrice && msg.value > basePrice){\n                // Devuelve el dinero al ANTIGUO maximo postor\n                highestBidder.transfer(highestPrice);\n                // Actualiza el nombre y precio al NUEVO maximo postor\n                highestBidder = msg.sender;\n                highestPrice = msg.value;\n                \n                // Se emite un evento\n                emit Status(\"Nueva puja mas alta, el ultimo postor tiene su dinero de vuelta\");\n            } else {\n                // Se emite un evento\n                emit Status(\"La puja no es posible, no es lo suficientemente alta\");\n                revert(\"La puja no es posible, no es lo suficientemente alta\");\n            }\n        }\n    }\n\n    // Funcion\n    // Nombre: checkIfAuctionEnded\n    // Uso:    Comprueba si la puja ha terminado, y en ese caso, \n    //         transfiere el balance del contrato al propietario de la subasta \n    function checkIfAuctionEnded() public{\n        if (block.timestamp > (createdTime + secondsToEnd)){\n            // Finaliza la subasta\n            activeContract = false;\n            \n            // Transfiere el dinero (maxima puja) al propietario original de la subasta\n            newOwner = highestBidder;\n            originalOwner.transfer(highestPrice);\n            \n            // Se emiten varios eventos\n            emit Status(\"La subasta ha finalizado\");\n            emit Result(\"El ganador de la subasta ha sido:\", highestBidder);\n        } else {\n            revert(\"La subasta esta activa\");\n        }\n    }\n        \n    // ------------ Funciones de panico/emergencia ------------\n\n    // Funcion\n    // Nombre: stopAuction\n    // Uso:    Para la subasta y devuelve el dinero al maximo postor\n    function stopAuction() public{\n        require(msg.sender == originalOwner, \"You must be the original OWNER\");\n        // Finaliza la subasta\n        activeContract = false;\n        // Devuelve el dinero al maximo postor\n        highestBidder.transfer(address(this).balance);\n        \n        // Se emite un evento\n        emit Status(\"La subasta se ha parado\");\n    }\n    \n    // ------------ Funciones que consultan datos (get) ------------\n\n    // Funcion\n    // Nombre: getAuctionInfo\n    // Logica: Consulta la description, la fecha de creacion y el tiempo de la subasta\n    function getAuctionInfo() public view returns (string memory, uint, uint){\n        return (description, createdTime, secondsToEnd);\n    }\n    \n    // Funcion\n    // Nombre: getHighestPrice\n    // Logica: Consulta el precio de la maxima puja\n    function getHighestPrice() public view returns (uint){\n        return (highestPrice);\n    }\n\n    // Funcion\n    // Nombre: getHighestBidder\n    // Logica: Consulta el maximo pujador de la subasta\n    function getHighestBidder() public view returns (address){\n        return (highestBidder);\n    }\n\n    // Funcion\n    // Nombre: getDescription\n    // Logica: Consulta la descripcion de la subasta\n    function getDescription() public view returns (string memory){\n        return (description);\n    }\n\n    // Funcion\n    // Nombre: getBasePrice\n    // Logica: Consulta el precio inicial de la subasta\n    function getBasePrice() public view returns (uint256){\n        return (basePrice);\n    }\n\n    // Funcion\n    // Nombre: getActiveContract\n    // Logica: Consulta si la subasta esta activa o no\n    function isActive() public view returns (bool){\n        return (activeContract);\n    }\n    \n}",
  "sourcePath": "/Users/der/Desktop/Ethereum DApps UEM/auction-dapp/truffle/contracts/Auction.sol",
  "compiler": {
    "name": "solc",
    "version": "0.5.16+commit.9c3226ce.Emscripten.clang"
  },
  "schemaVersion": "3.4.7",
  "updatedAt": "2022-04-29T09:52:54.845Z",
  "networkType": "ethereum",
  "devdoc": {
    "methods": {}
  },
  "userdoc": {
    "methods": {}
  }
}