{
  "contractName": "Auction",
  "abi": [
    {
      "inputs": [],
      "payable": false,
      "stateMutability": "nonpayable",
      "type": "constructor"
    },
    {
      "anonymous": false,
      "inputs": [
        {
          "indexed": false,
          "internalType": "string",
          "name": "_message",
          "type": "string"
        },
        {
          "indexed": false,
          "internalType": "address",
          "name": "winner",
          "type": "address"
        }
      ],
      "name": "Result",
      "type": "event"
    },
    {
      "anonymous": false,
      "inputs": [
        {
          "indexed": false,
          "internalType": "string",
          "name": "_message",
          "type": "string"
        }
      ],
      "name": "Status",
      "type": "event"
    },
    {
      "constant": true,
      "inputs": [],
      "name": "highestBidder",
      "outputs": [
        {
          "internalType": "address payable",
          "name": "",
          "type": "address"
        }
      ],
      "payable": false,
      "stateMutability": "view",
      "type": "function"
    },
    {
      "constant": true,
      "inputs": [],
      "name": "highestPrice",
      "outputs": [
        {
          "internalType": "uint256",
          "name": "",
          "type": "uint256"
        }
      ],
      "payable": false,
      "stateMutability": "view",
      "type": "function"
    },
    {
      "constant": true,
      "inputs": [],
      "name": "imageURI",
      "outputs": [
        {
          "internalType": "string",
          "name": "",
          "type": "string"
        }
      ],
      "payable": false,
      "stateMutability": "view",
      "type": "function"
    },
    {
      "constant": true,
      "inputs": [],
      "name": "newOwner",
      "outputs": [
        {
          "internalType": "address",
          "name": "",
          "type": "address"
        }
      ],
      "payable": false,
      "stateMutability": "view",
      "type": "function"
    },
    {
      "constant": true,
      "inputs": [],
      "name": "originalOwner",
      "outputs": [
        {
          "internalType": "address payable",
          "name": "",
          "type": "address"
        }
      ],
      "payable": false,
      "stateMutability": "view",
      "type": "function"
    },
    {
      "constant": false,
      "inputs": [],
      "name": "bid",
      "outputs": [],
      "payable": true,
      "stateMutability": "payable",
      "type": "function"
    },
    {
      "constant": false,
      "inputs": [],
      "name": "checkIfAuctionEnded",
      "outputs": [],
      "payable": false,
      "stateMutability": "nonpayable",
      "type": "function"
    },
    {
      "constant": false,
      "inputs": [],
      "name": "stopAuction",
      "outputs": [],
      "payable": false,
      "stateMutability": "nonpayable",
      "type": "function"
    },
    {
      "constant": true,
      "inputs": [],
      "name": "getAuctionInfo",
      "outputs": [
        {
          "internalType": "string",
          "name": "",
          "type": "string"
        },
        {
          "internalType": "uint256",
          "name": "",
          "type": "uint256"
        },
        {
          "internalType": "uint256",
          "name": "",
          "type": "uint256"
        }
      ],
      "payable": false,
      "stateMutability": "view",
      "type": "function"
    },
    {
      "constant": true,
      "inputs": [],
      "name": "getHighestPrice",
      "outputs": [
        {
          "internalType": "uint256",
          "name": "",
          "type": "uint256"
        }
      ],
      "payable": false,
      "stateMutability": "view",
      "type": "function"
    },
    {
      "constant": true,
      "inputs": [],
      "name": "getHighestBidder",
      "outputs": [
        {
          "internalType": "address",
          "name": "",
          "type": "address"
        }
      ],
      "payable": false,
      "stateMutability": "view",
      "type": "function"
    },
    {
      "constant": true,
      "inputs": [],
      "name": "getDescription",
      "outputs": [
        {
          "internalType": "string",
          "name": "",
          "type": "string"
        }
      ],
      "payable": false,
      "stateMutability": "view",
      "type": "function"
    },
    {
      "constant": true,
      "inputs": [],
      "name": "getBasePrice",
      "outputs": [
        {
          "internalType": "uint256",
          "name": "",
          "type": "uint256"
        }
      ],
      "payable": false,
      "stateMutability": "view",
      "type": "function"
    },
    {
      "constant": true,
      "inputs": [],
      "name": "isActive",
      "outputs": [
        {
          "internalType": "bool",
          "name": "",
          "type": "bool"
        }
      ],
      "payable": false,
      "stateMutability": "view",
      "type": "function"
    }
  ],
  "bytecode": "0x60806040523480156200001157600080fd5b50604051806060016040528060278152602001620010a36027913960009080519060200190620000439291906200015f565b50604051806080016040528060428152602001620010ca6042913960019080519060200190620000759291906200015f565b50670de0b6b3a7640000600281905550610e106003819055506001600960006101000a81548160ff0219169083151502179055504260048190555033600560006101000a81548173ffffffffffffffffffffffffffffffffffffffff021916908373ffffffffffffffffffffffffffffffffffffffff1602179055507f2844c95bf1b4598da931d527f903501abc60fe0199c65da52d5ce818c6c5e96160405180806020018281038252600e8152602001807f537562617374612063726561646100000000000000000000000000000000000081525060200191505060405180910390a16200020e565b828054600181600116156101000203166002900490600052602060002090601f016020900481019282601f10620001a257805160ff1916838001178555620001d3565b82800160010185558215620001d3579182015b82811115620001d2578251825591602001919060010190620001b5565b5b509050620001e29190620001e6565b5090565b6200020b91905b8082111562000207576000816000905550600101620001ed565b5090565b90565b610e85806200021e6000396000f3fe6080604052600436106100dc5760003560e01c806391f901571161007f578063cf1f297411610059578063cf1f297414610380578063d4ee1d9014610397578063d94a3505146103ee578063f1fffdcb1461048c576100dc565b806391f90157146102d3578063b49f4afd1461032a578063bc6f1f1b14610355576100dc565b80631998aeef116100bb5780631998aeef146101f35780631a092541146101fd57806322f3e2d41461028d578063269b9a08146102bc576100dc565b80623495a4146100e15780630e8670e014610138578063135d088d14610163575b600080fd5b3480156100ed57600080fd5b506100f66104e3565b604051808273ffffffffffffffffffffffffffffffffffffffff1673ffffffffffffffffffffffffffffffffffffffff16815260200191505060405180910390f35b34801561014457600080fd5b5061014d61050d565b6040518082815260200191505060405180910390f35b34801561016f57600080fd5b50610178610513565b6040518080602001828103825283818151815260200191508051906020019080838360005b838110156101b857808201518184015260208101905061019d565b50505050905090810190601f1680156101e55780820380516001836020036101000a031916815260200191505b509250505060405180910390f35b6101fb6105b1565b005b34801561020957600080fd5b506102126107a3565b6040518080602001828103825283818151815260200191508051906020019080838360005b83811015610252578082015181840152602081019050610237565b50505050905090810190601f16801561027f5780820380516001836020036101000a031916815260200191505b509250505060405180910390f35b34801561029957600080fd5b506102a2610845565b604051808215151515815260200191505060405180910390f35b3480156102c857600080fd5b506102d161085c565b005b3480156102df57600080fd5b506102e8610a0d565b604051808273ffffffffffffffffffffffffffffffffffffffff1673ffffffffffffffffffffffffffffffffffffffff16815260200191505060405180910390f35b34801561033657600080fd5b5061033f610a33565b6040518082815260200191505060405180910390f35b34801561036157600080fd5b5061036a610a3d565b6040518082815260200191505060405180910390f35b34801561038c57600080fd5b50610395610a47565b005b3480156103a357600080fd5b506103ac610cbc565b604051808273ffffffffffffffffffffffffffffffffffffffff1673ffffffffffffffffffffffffffffffffffffffff16815260200191505060405180910390f35b3480156103fa57600080fd5b50610403610ce2565b6040518080602001848152602001838152602001828103825285818151815260200191508051906020019080838360005b8381101561044f578082015181840152602081019050610434565b50505050905090810190601f16801561047c5780820380516001836020036101000a031916815260200191505b5094505050505060405180910390f35b34801561049857600080fd5b506104a1610d96565b604051808273ffffffffffffffffffffffffffffffffffffffff1673ffffffffffffffffffffffffffffffffffffffff16815260200191505060405180910390f35b6000600760009054906101000a900473ffffffffffffffffffffffffffffffffffffffff16905090565b60085481565b60018054600181600116156101000203166002900480601f0160208091040260200160405190810160405280929190818152602001828054600181600116156101000203166002900480156105a95780601f1061057e576101008083540402835291602001916105a9565b820191906000526020600020905b81548152906001019060200180831161058c57829003601f168201915b505050505081565b600354600454014211806105d8575060001515600960009054906101000a900460ff161515145b156105ea576105e5610a47565b6107a1565b600854341180156105fc575060025434115b1561070457600760009054906101000a900473ffffffffffffffffffffffffffffffffffffffff1673ffffffffffffffffffffffffffffffffffffffff166108fc6008549081150290604051600060405180830381858888f1935050505015801561066b573d6000803e3d6000fd5b5033600760006101000a81548173ffffffffffffffffffffffffffffffffffffffff021916908373ffffffffffffffffffffffffffffffffffffffff160217905550346008819055507f2844c95bf1b4598da931d527f903501abc60fe0199c65da52d5ce818c6c5e96160405180806020018281038252603f815260200180610e12603f913960400191505060405180910390a16107a0565b7f2844c95bf1b4598da931d527f903501abc60fe0199c65da52d5ce818c6c5e961604051808060200182810382526034815260200180610dbd6034913960400191505060405180910390a16040517f08c379a0000000000000000000000000000000000000000000000000000000008152600401808060200182810382526034815260200180610dbd6034913960400191505060405180910390fd5b5b565b606060008054600181600116156101000203166002900480601f01602080910402602001604051908101604052809291908181526020018280546001816001161561010002031660029004801561083b5780601f106108105761010080835404028352916020019161083b565b820191906000526020600020905b81548152906001019060200180831161081e57829003601f168201915b5050505050905090565b6000600960009054906101000a900460ff16905090565b600560009054906101000a900473ffffffffffffffffffffffffffffffffffffffff1673ffffffffffffffffffffffffffffffffffffffff163373ffffffffffffffffffffffffffffffffffffffff161461091f576040517f08c379a000000000000000000000000000000000000000000000000000000000815260040180806020018281038252601e8152602001807f596f75206d75737420626520746865206f726967696e616c204f574e4552000081525060200191505060405180910390fd5b6000600960006101000a81548160ff021916908315150217905550600760009054906101000a900473ffffffffffffffffffffffffffffffffffffffff1673ffffffffffffffffffffffffffffffffffffffff166108fc479081150290604051600060405180830381858888f193505050501580156109a2573d6000803e3d6000fd5b507f2844c95bf1b4598da931d527f903501abc60fe0199c65da52d5ce818c6c5e9616040518080602001828103825260178152602001807f4c6120737562617374612073652068612070617261646f00000000000000000081525060200191505060405180910390a1565b600760009054906101000a900473ffffffffffffffffffffffffffffffffffffffff1681565b6000600254905090565b6000600854905090565b60035460045401421115610c4c576000600960006101000a81548160ff021916908315150217905550600760009054906101000a900473ffffffffffffffffffffffffffffffffffffffff16600660006101000a81548173ffffffffffffffffffffffffffffffffffffffff021916908373ffffffffffffffffffffffffffffffffffffffff160217905550600560009054906101000a900473ffffffffffffffffffffffffffffffffffffffff1673ffffffffffffffffffffffffffffffffffffffff166108fc6008549081150290604051600060405180830381858888f19350505050158015610b3d573d6000803e3d6000fd5b507f2844c95bf1b4598da931d527f903501abc60fe0199c65da52d5ce818c6c5e9616040518080602001828103825260188152602001807f4c6120737562617374612068612066696e616c697a61646f000000000000000081525060200191505060405180910390a17fbb9721a0a3c06497a88ed083ae73d825db6e63e077545032e06a18fecb27d8ab600760009054906101000a900473ffffffffffffffffffffffffffffffffffffffff1660405180806020018373ffffffffffffffffffffffffffffffffffffffff1673ffffffffffffffffffffffffffffffffffffffff16815260200182810382526021815260200180610df1602191396040019250505060405180910390a1610cba565b6040517f08c379a00000000000000000000000000000000000000000000000000000000081526004018080602001828103825260168152602001807f4c6120737562617374612065737461206163746976610000000000000000000081525060200191505060405180910390fd5b565b600660009054906101000a900473ffffffffffffffffffffffffffffffffffffffff1681565b60606000806000600454600354828054600181600116156101000203166002900480601f016020809104026020016040519081016040528092919081815260200182805460018160011615610100020316600290048015610d845780601f10610d5957610100808354040283529160200191610d84565b820191906000526020600020905b815481529060010190602001808311610d6757829003601f168201915b50505050509250925092509250909192565b600560009054906101000a900473ffffffffffffffffffffffffffffffffffffffff168156fe4c612070756a61206e6f20657320706f7369626c652c206e6f206573206c6f20737566696369656e74656d656e746520616c7461456c2067616e61646f72206465206c612073756261737461206861207369646f3a4e756576612070756a61206d617320616c74612c20656c20756c74696d6f20706f73746f72207469656e652073752064696e65726f206465207675656c7461a265627a7a723158205c98ed796110182bf0526ae2339e86e52d65f4ec62fa97e2c62245c5d481bf4164736f6c63430005100032466f726420466f6375732053542053706f7274627265616b2032303139202d20333439394b595a697066733a2f2f62616679626569667a6d367871647577676c366c776a7961626a327635717764757771676f747236686a6a3563753633326c647475367a62773461",
  "source": "// Version de solidity del Smart Contract\n// SPDX-License-Identifier: UNLICENSED\n\npragma solidity >=0.4.22 <0.7.0;\n\n// Informacion del Smart Contract\n// Nombre: Subasta\n// Logica: Implementa subasta de productos entre varios participantes\n\n// Declaracion del Smart Contract - Auction\ncontract Auction {\n\n    // ----------- Variables (datos) -----------\n    // Información de la subasta\n    string private description;\n    string public imageURI;\n    uint private basePrice;\n    uint256 private secondsToEnd;\n    uint256 private createdTime;\n\n    // Antiguo/nuevo dueño de subasta\n    address payable public originalOwner;\n    address public newOwner;\n\n    // Puja mas alta\n    address payable public highestBidder;\n    uint public highestPrice;\n    \n    // Estado de la subasta\n    bool private activeContract;\n    \n    // ----------- Eventos (pueden ser emitidos por el Smart Contract) -----------\n    event Status(string _message);\n    event Result(string _message, address winner);\n\n    // ----------- Constructor -----------\n    // Uso: Inicializa el Smart Contract - Auction con: description, precio y tiempo\n    constructor() public {\n        \n        // Inicializo el valor a las variables (datos)\n        description = \"Ford Focus ST Sportbreak 2019 - 3499KYZ\";\n        imageURI = \"ipfs://bafybeifzm6xqduwgl6lwjyabj2v5qwduwqgotr6hjj5cu632ldtu6zbw4a\";\n        basePrice = 1 ether;   \n        secondsToEnd = 3600;   // 86400 = 24h | 3600 = 1h | 900 = 15 min | 600 = 10 min\n        activeContract = true;\n        createdTime = block.timestamp;\n        originalOwner = msg.sender;\n        \n        // Se emite un Evento\n        emit Status(\"Subasta creada\");\n    }\n    \n    // ------------ Funciones que modifican datos (set) ------------\n\n    // Funcion\n    // Nombre: bid\n    // Uso:    Permite a cualquier postor hacer una oferta de dinero para la subata\n    //         El dinero es almacenado en el contrato, junto con el nombre del postor\n    //         El postor cuya oferta ha sido superada recibe de vuelta el dinero pujado\n    function bid() public payable {\n        if(block.timestamp > (createdTime + secondsToEnd)  || activeContract == false){\n            checkIfAuctionEnded();\n        } else {\n            if (msg.value > highestPrice && msg.value > basePrice){\n                // Devuelve el dinero al ANTIGUO maximo postor\n                highestBidder.transfer(highestPrice);\n                // Actualiza el nombre y precio al NUEVO maximo postor\n                highestBidder = msg.sender;\n                highestPrice = msg.value;\n                \n                // Se emite un evento\n                emit Status(\"Nueva puja mas alta, el ultimo postor tiene su dinero de vuelta\");\n            } else {\n                // Se emite un evento\n                emit Status(\"La puja no es posible, no es lo suficientemente alta\");\n                revert(\"La puja no es posible, no es lo suficientemente alta\");\n            }\n        }\n    }\n\n    // Funcion\n    // Nombre: checkIfAuctionEnded\n    // Uso:    Comprueba si la puja ha terminado, y en ese caso, \n    //         transfiere el balance del contrato al propietario de la subasta \n    function checkIfAuctionEnded() public{\n        if (block.timestamp > (createdTime + secondsToEnd)){\n            // Finaliza la subasta\n            activeContract = false;\n            \n            // Transfiere el dinero (maxima puja) al propietario original de la subasta\n            newOwner = highestBidder;\n            originalOwner.transfer(highestPrice);\n            \n            // Se emiten varios eventos\n            emit Status(\"La subasta ha finalizado\");\n            emit Result(\"El ganador de la subasta ha sido:\", highestBidder);\n        } else {\n            revert(\"La subasta esta activa\");\n        }\n    }\n        \n    // ------------ Funciones de panico/emergencia ------------\n\n    // Funcion\n    // Nombre: stopAuction\n    // Uso:    Para la subasta y devuelve el dinero al maximo postor\n    function stopAuction() public{\n        require(msg.sender == originalOwner, \"You must be the original OWNER\");\n        // Finaliza la subasta\n        activeContract = false;\n        // Devuelve el dinero al maximo postor\n        highestBidder.transfer(address(this).balance);\n        \n        // Se emite un evento\n        emit Status(\"La subasta se ha parado\");\n    }\n    \n    // ------------ Funciones que consultan datos (get) ------------\n\n    // Funcion\n    // Nombre: getAuctionInfo\n    // Logica: Consulta la description, la fecha de creacion y el tiempo de la subasta\n    function getAuctionInfo() public view returns (string memory, uint, uint){\n        return (description, createdTime, secondsToEnd);\n    }\n    \n    // Funcion\n    // Nombre: getHighestPrice\n    // Logica: Consulta el precio de la maxima puja\n    function getHighestPrice() public view returns (uint){\n        return (highestPrice);\n    }\n\n    // Funcion\n    // Nombre: getHighestBidder\n    // Logica: Consulta el maximo pujador de la subasta\n    function getHighestBidder() public view returns (address){\n        return (highestBidder);\n    }\n\n    // Funcion\n    // Nombre: getDescription\n    // Logica: Consulta la descripcion de la subasta\n    function getDescription() public view returns (string memory){\n        return (description);\n    }\n\n    // Funcion\n    // Nombre: getBasePrice\n    // Logica: Consulta el precio inicial de la subasta\n    function getBasePrice() public view returns (uint256){\n        return (basePrice);\n    }\n\n    // Funcion\n    // Nombre: getActiveContract\n    // Logica: Consulta si la subasta esta activa o no\n    function isActive() public view returns (bool){\n        return (activeContract);\n    }\n    \n}",
  "sourcePath": "/Users/der/Desktop/Ethereum DApps UEM/auction-dapp/truffle/contracts/Auction.sol",
  "compiler": {
    "name": "solc",
    "version": "0.5.16+commit.9c3226ce.Emscripten.clang"
  },
  "schemaVersion": "3.4.7",
  "updatedAt": "2022-04-29T15:29:27.134Z",
  "networkType": "ethereum",
  "devdoc": {
    "methods": {}
  },
  "userdoc": {
    "methods": {}
  }
}