{
  "contractName": "Auction",
  "abi": [
    {
      "inputs": [],
      "stateMutability": "nonpayable",
      "type": "constructor"
    },
    {
      "anonymous": false,
      "inputs": [
        {
          "indexed": false,
          "internalType": "string",
          "name": "_message",
          "type": "string"
        },
        {
          "indexed": false,
          "internalType": "address",
          "name": "winner",
          "type": "address"
        }
      ],
      "name": "Result",
      "type": "event"
    },
    {
      "anonymous": false,
      "inputs": [
        {
          "indexed": false,
          "internalType": "string",
          "name": "_message",
          "type": "string"
        }
      ],
      "name": "Status",
      "type": "event"
    },
    {
      "inputs": [],
      "name": "highestBidder",
      "outputs": [
        {
          "internalType": "address payable",
          "name": "",
          "type": "address"
        }
      ],
      "stateMutability": "view",
      "type": "function",
      "constant": true
    },
    {
      "inputs": [],
      "name": "highestPrice",
      "outputs": [
        {
          "internalType": "uint256",
          "name": "",
          "type": "uint256"
        }
      ],
      "stateMutability": "view",
      "type": "function",
      "constant": true
    },
    {
      "inputs": [],
      "name": "newOwner",
      "outputs": [
        {
          "internalType": "address",
          "name": "",
          "type": "address"
        }
      ],
      "stateMutability": "view",
      "type": "function",
      "constant": true
    },
    {
      "inputs": [],
      "name": "originalOwner",
      "outputs": [
        {
          "internalType": "address payable",
          "name": "",
          "type": "address"
        }
      ],
      "stateMutability": "view",
      "type": "function",
      "constant": true
    },
    {
      "inputs": [],
      "name": "bid",
      "outputs": [],
      "stateMutability": "payable",
      "type": "function",
      "payable": true
    },
    {
      "inputs": [],
      "name": "checkIfAuctionEnded",
      "outputs": [],
      "stateMutability": "nonpayable",
      "type": "function"
    },
    {
      "inputs": [],
      "name": "stopAuction",
      "outputs": [],
      "stateMutability": "nonpayable",
      "type": "function"
    },
    {
      "inputs": [],
      "name": "getAuctionInfo",
      "outputs": [
        {
          "internalType": "string",
          "name": "",
          "type": "string"
        },
        {
          "internalType": "uint256",
          "name": "",
          "type": "uint256"
        },
        {
          "internalType": "uint256",
          "name": "",
          "type": "uint256"
        }
      ],
      "stateMutability": "view",
      "type": "function",
      "constant": true
    },
    {
      "inputs": [],
      "name": "getHighestPrice",
      "outputs": [
        {
          "internalType": "uint256",
          "name": "",
          "type": "uint256"
        }
      ],
      "stateMutability": "view",
      "type": "function",
      "constant": true
    },
    {
      "inputs": [],
      "name": "getHighestBidder",
      "outputs": [
        {
          "internalType": "address",
          "name": "",
          "type": "address"
        }
      ],
      "stateMutability": "view",
      "type": "function",
      "constant": true
    },
    {
      "inputs": [],
      "name": "getDescription",
      "outputs": [
        {
          "internalType": "string",
          "name": "",
          "type": "string"
        }
      ],
      "stateMutability": "view",
      "type": "function",
      "constant": true
    },
    {
      "inputs": [],
      "name": "getBasePrice",
      "outputs": [
        {
          "internalType": "uint256",
          "name": "",
          "type": "uint256"
        }
      ],
      "stateMutability": "view",
      "type": "function",
      "constant": true
    },
    {
      "inputs": [],
      "name": "isActive",
      "outputs": [
        {
          "internalType": "bool",
          "name": "",
          "type": "bool"
        }
      ],
      "stateMutability": "view",
      "type": "function",
      "constant": true
    }
  ],
  "bytecode": "0x60806040523480156200001157600080fd5b506040518060800160405280604481526020016200158660449139600090816200003c91906200036f565b50670de0b6b3a76400006001819055506102586002819055506001600860006101000a81548160ff0219169083151502179055504260038190555033600460006101000a81548173ffffffffffffffffffffffffffffffffffffffff021916908373ffffffffffffffffffffffffffffffffffffffff1602179055507f2844c95bf1b4598da931d527f903501abc60fe0199c65da52d5ce818c6c5e961604051620000e790620004b7565b60405180910390a1620004d9565b600081519050919050565b7f4e487b7100000000000000000000000000000000000000000000000000000000600052604160045260246000fd5b7f4e487b7100000000000000000000000000000000000000000000000000000000600052602260045260246000fd5b600060028204905060018216806200017757607f821691505b6020821081036200018d576200018c6200012f565b5b50919050565b60008190508160005260206000209050919050565b60006020601f8301049050919050565b600082821b905092915050565b600060088302620001f77fffffffffffffffffffffffffffffffffffffffffffffffffffffffffffffffff82620001b8565b620002038683620001b8565b95508019841693508086168417925050509392505050565b6000819050919050565b6000819050919050565b6000620002506200024a62000244846200021b565b62000225565b6200021b565b9050919050565b6000819050919050565b6200026c836200022f565b620002846200027b8262000257565b848454620001c5565b825550505050565b600090565b6200029b6200028c565b620002a881848462000261565b505050565b5b81811015620002d057620002c460008262000291565b600181019050620002ae565b5050565b601f8211156200031f57620002e98162000193565b620002f484620001a8565b8101602085101562000304578190505b6200031c6200031385620001a8565b830182620002ad565b50505b505050565b600082821c905092915050565b6000620003446000198460080262000324565b1980831691505092915050565b60006200035f838362000331565b9150826002028217905092915050565b6200037a82620000f5565b67ffffffffffffffff81111562000396576200039562000100565b5b620003a282546200015e565b620003af828285620002d4565b600060209050601f831160018114620003e75760008415620003d2578287015190505b620003de858262000351565b8655506200044e565b601f198416620003f78662000193565b60005b828110156200042157848901518255600182019150602085019450602081019050620003fa565b868310156200044157848901516200043d601f89168262000331565b8355505b6001600288020188555050505b505050505050565b600082825260208201905092915050565b7f5375626173746120637265616461000000000000000000000000000000000000600082015250565b60006200049f600e8362000456565b9150620004ac8262000467565b602082019050919050565b60006020820190508181036000830152620004d28162000490565b9050919050565b61109d80620004e96000396000f3fe6080604052600436106100c15760003560e01c806391f901571161007f578063cf1f297411610059578063cf1f297414610214578063d4ee1d901461022b578063d94a350514610256578063f1fffdcb14610283576100c1565b806391f9015714610193578063b49f4afd146101be578063bc6f1f1b146101e9576100c1565b80623495a4146100c65780630e8670e0146100f15780631998aeef1461011c5780631a0925411461012657806322f3e2d414610151578063269b9a081461017c575b600080fd5b3480156100d257600080fd5b506100db6102ae565b6040516100e89190610a20565b60405180910390f35b3480156100fd57600080fd5b506101066102d8565b6040516101139190610a54565b60405180910390f35b6101246102de565b005b34801561013257600080fd5b5061013b610498565b6040516101489190610aff565b60405180910390f35b34801561015d57600080fd5b5061016661052a565b6040516101739190610b3c565b60405180910390f35b34801561018857600080fd5b50610191610541565b005b34801561019f57600080fd5b506101a86106e5565b6040516101b59190610b78565b60405180910390f35b3480156101ca57600080fd5b506101d361070b565b6040516101e09190610a54565b60405180910390f35b3480156101f557600080fd5b506101fe610715565b60405161020b9190610a54565b60405180910390f35b34801561022057600080fd5b5061022961071f565b005b34801561023757600080fd5b506102406108ef565b60405161024d9190610a20565b60405180910390f35b34801561026257600080fd5b5061026b610915565b60405161027a93929190610b93565b60405180910390f35b34801561028f57600080fd5b506102986109b9565b6040516102a59190610b78565b60405180910390f35b6000600660009054906101000a900473ffffffffffffffffffffffffffffffffffffffff16905090565b60075481565b6002546003546102ee9190610c00565b4211801561030f575060011515600860009054906101000a900460ff161515145b156103215761031c61071f565b610496565b60075434118015610333575060015434115b1561042557600660009054906101000a900473ffffffffffffffffffffffffffffffffffffffff1673ffffffffffffffffffffffffffffffffffffffff166108fc6007549081150290604051600060405180830381858888f193505050501580156103a2573d6000803e3d6000fd5b5033600660006101000a81548173ffffffffffffffffffffffffffffffffffffffff021916908373ffffffffffffffffffffffffffffffffffffffff160217905550346007819055507f2844c95bf1b4598da931d527f903501abc60fe0199c65da52d5ce818c6c5e96160405161041890610ca6565b60405180910390a1610495565b7f2844c95bf1b4598da931d527f903501abc60fe0199c65da52d5ce818c6c5e96160405161045290610d38565b60405180910390a16040517f08c379a000000000000000000000000000000000000000000000000000000000815260040161048c90610d38565b60405180910390fd5b5b565b6060600080546104a790610d87565b80601f01602080910402602001604051908101604052809291908181526020018280546104d390610d87565b80156105205780601f106104f557610100808354040283529160200191610520565b820191906000526020600020905b81548152906001019060200180831161050357829003601f168201915b5050505050905090565b6000600860009054906101000a900460ff16905090565b600460009054906101000a900473ffffffffffffffffffffffffffffffffffffffff1673ffffffffffffffffffffffffffffffffffffffff163373ffffffffffffffffffffffffffffffffffffffff16146105d1576040517f08c379a00000000000000000000000000000000000000000000000000000000081526004016105c890610e04565b60405180910390fd5b6000600860006101000a81548160ff021916908315150217905550600073ffffffffffffffffffffffffffffffffffffffff16600660009054906101000a900473ffffffffffffffffffffffffffffffffffffffff1673ffffffffffffffffffffffffffffffffffffffff16146106ae57600660009054906101000a900473ffffffffffffffffffffffffffffffffffffffff1673ffffffffffffffffffffffffffffffffffffffff166108fc6007549081150290604051600060405180830381858888f193505050501580156106ac573d6000803e3d6000fd5b505b7f2844c95bf1b4598da931d527f903501abc60fe0199c65da52d5ce818c6c5e9616040516106db90610e70565b60405180910390a1565b600660009054906101000a900473ffffffffffffffffffffffffffffffffffffffff1681565b6000600154905090565b6000600754905090565b60025460035461072f9190610c00565b4211156108b2576000600860006101000a81548160ff021916908315150217905550600660009054906101000a900473ffffffffffffffffffffffffffffffffffffffff16600560006101000a81548173ffffffffffffffffffffffffffffffffffffffff021916908373ffffffffffffffffffffffffffffffffffffffff160217905550600460009054906101000a900473ffffffffffffffffffffffffffffffffffffffff1673ffffffffffffffffffffffffffffffffffffffff166108fc6007549081150290604051600060405180830381858888f1935050505015801561081e573d6000803e3d6000fd5b507f2844c95bf1b4598da931d527f903501abc60fe0199c65da52d5ce818c6c5e96160405161084c90610edc565b60405180910390a17fbb9721a0a3c06497a88ed083ae73d825db6e63e077545032e06a18fecb27d8ab600660009054906101000a900473ffffffffffffffffffffffffffffffffffffffff166040516108a59190610fcd565b60405180910390a16108ed565b6040517f08c379a00000000000000000000000000000000000000000000000000000000081526004016108e490611047565b60405180910390fd5b565b600560009054906101000a900473ffffffffffffffffffffffffffffffffffffffff1681565b6060600080600060035460025482805461092e90610d87565b80601f016020809104026020016040519081016040528092919081815260200182805461095a90610d87565b80156109a75780601f1061097c576101008083540402835291602001916109a7565b820191906000526020600020905b81548152906001019060200180831161098a57829003601f168201915b50505050509250925092509250909192565b600460009054906101000a900473ffffffffffffffffffffffffffffffffffffffff1681565b600073ffffffffffffffffffffffffffffffffffffffff82169050919050565b6000610a0a826109df565b9050919050565b610a1a816109ff565b82525050565b6000602082019050610a356000830184610a11565b92915050565b6000819050919050565b610a4e81610a3b565b82525050565b6000602082019050610a696000830184610a45565b92915050565b600081519050919050565b600082825260208201905092915050565b60005b83811015610aa9578082015181840152602081019050610a8e565b60008484015250505050565b6000601f19601f8301169050919050565b6000610ad182610a6f565b610adb8185610a7a565b9350610aeb818560208601610a8b565b610af481610ab5565b840191505092915050565b60006020820190508181036000830152610b198184610ac6565b905092915050565b60008115159050919050565b610b3681610b21565b82525050565b6000602082019050610b516000830184610b2d565b92915050565b6000610b62826109df565b9050919050565b610b7281610b57565b82525050565b6000602082019050610b8d6000830184610b69565b92915050565b60006060820190508181036000830152610bad8186610ac6565b9050610bbc6020830185610a45565b610bc96040830184610a45565b949350505050565b7f4e487b7100000000000000000000000000000000000000000000000000000000600052601160045260246000fd5b6000610c0b82610a3b565b9150610c1683610a3b565b9250828201905080821115610c2e57610c2d610bd1565b5b92915050565b7f4e756576612070756a61206d617320616c74612c20656c20756c74696d6f207060008201527f6f73746f72207469656e652073752064696e65726f206465207675656c746100602082015250565b6000610c90603f83610a7a565b9150610c9b82610c34565b604082019050919050565b60006020820190508181036000830152610cbf81610c83565b9050919050565b7f4c612070756a61206e6f20657320706f7369626c652c206e6f206573206c6f2060008201527f737566696369656e74656d656e746520616c7461000000000000000000000000602082015250565b6000610d22603483610a7a565b9150610d2d82610cc6565b604082019050919050565b60006020820190508181036000830152610d5181610d15565b9050919050565b7f4e487b7100000000000000000000000000000000000000000000000000000000600052602260045260246000fd5b60006002820490506001821680610d9f57607f821691505b602082108103610db257610db1610d58565b5b50919050565b7f596f75206d75737420626520746865206f726967696e616c204f574e45520000600082015250565b6000610dee601e83610a7a565b9150610df982610db8565b602082019050919050565b60006020820190508181036000830152610e1d81610de1565b9050919050565b7f4c6120737562617374612073652068612070617261646f000000000000000000600082015250565b6000610e5a601783610a7a565b9150610e6582610e24565b602082019050919050565b60006020820190508181036000830152610e8981610e4d565b9050919050565b7f4c6120737562617374612068612066696e616c697a61646f0000000000000000600082015250565b6000610ec6601883610a7a565b9150610ed182610e90565b602082019050919050565b60006020820190508181036000830152610ef581610eb9565b9050919050565b7f456c2067616e61646f72206465206c612073756261737461206861207369646f60008201527f3a00000000000000000000000000000000000000000000000000000000000000602082015250565b6000610f58602183610a7a565b9150610f6382610efc565b604082019050919050565b6000819050919050565b6000610f93610f8e610f89846109df565b610f6e565b6109df565b9050919050565b6000610fa582610f78565b9050919050565b6000610fb782610f9a565b9050919050565b610fc781610fac565b82525050565b60006040820190508181036000830152610fe681610f4b565b9050610ff56020830184610fbe565b92915050565b7f4c61207375626173746120657374612061637469766100000000000000000000600082015250565b6000611031601683610a7a565b915061103c82610ffb565b602082019050919050565b6000602082019050818103600083015261106081611024565b905091905056fea2646970667358221220894303fa2f2b845c99a47fdb6e15425eacfd2367ab23171bab919e640ac1903a64736f6c63430008100033456e20657374612073756261737461207365206f667265636520756e20636f6368652e20536520747261746120646520756e20466f726420466f637573206465202e2e2e",
  "immutableReferences": {},
  "source": "// Version de solidity del Smart Contract\n// SPDX-License-Identifier: UNLICENSED\n\npragma solidity ^0.8.16;\n\n// Informacion del Smart Contract\n// Nombre: Subasta\n// Logica: Implementa subasta de productos entre varios participantes\n\n// Declaracion del Smart Contract - Auction\ncontract Auction {\n\n    // ----------- Variables (datos) -----------\n    // Informacin de la subasta\n    string private description;\n    uint private basePrice;\n    uint256 private secondsToEnd;\n    uint256 private createdTime;\n\n    // Antiguo/nuevo dueo de subasta\n    address payable public originalOwner;\n    address public newOwner;\n\n    // Puja mas alta\n    address payable public highestBidder;\n    uint public highestPrice;\n    \n    // Estado de la subasta\n    bool private activeContract;\n    \n    // ----------- Eventos (pueden ser emitidos por el Smart Contract) -----------\n    event Status(string _message);\n    event Result(string _message, address winner);\n\n    // ----------- Constructor -----------\n    // Uso: Inicializa el Smart Contract - Auction con: description, precio y tiempo\n    constructor() {\n        \n        // Inicializo el valor a las variables (datos)\n        description = \"En esta subasta se ofrece un coche. Se trata de un Ford Focus de ...\";\n        basePrice = 1 ether;   \n        secondsToEnd = 600;   // 86400 = 24h | 3600 = 1h | 900 = 15 min | 600 = 10 min\n        activeContract = true;\n        createdTime = block.timestamp;\n        originalOwner = payable(msg.sender);\n        \n        // Se emite un Evento\n        emit Status(\"Subasta creada\");\n    }\n    \n    // ------------ Funciones que modifican datos (set) ------------\n\n    // Funcion\n    // Nombre: bid\n    // Uso:    Permite a cualquier postor hacer una oferta de dinero para la subata\n    //         El dinero es almacenado en el contrato, junto con el nombre del postor\n    //         El postor cuya oferta ha sido superada recibe de vuelta el dinero pujado\n    function bid() public payable {\n        if(block.timestamp > (createdTime + secondsToEnd)  && activeContract == true){\n            checkIfAuctionEnded();\n        } else {\n            if (msg.value > highestPrice && msg.value > basePrice){\n                // Devuelve el dinero al ANTIGUO maximo postor\n                highestBidder.transfer(highestPrice);\n                \n                // Actualiza el nombre y precio al NUEVO maximo postor\n                highestBidder = payable(msg.sender);\n                highestPrice = msg.value;\n                \n                // Se emite un evento\n                emit Status(\"Nueva puja mas alta, el ultimo postor tiene su dinero de vuelta\");\n            } else {\n                // Se emite un evento\n                emit Status(\"La puja no es posible, no es lo suficientemente alta\");\n                revert(\"La puja no es posible, no es lo suficientemente alta\");\n            }\n        }\n    }\n\n    // Funcion\n    // Nombre: checkIfAuctionEnded\n    // Uso:    Comprueba si la puja ha terminado, y en ese caso, \n    //         transfiere el balance del contrato al propietario de la subasta \n    function checkIfAuctionEnded() public{\n        if (block.timestamp > (createdTime + secondsToEnd)){\n            // Finaliza la subasta\n            activeContract = false;\n            \n            // Transfiere el dinero (maxima puja) al propietario original de la subasta\n            newOwner = highestBidder;\n            originalOwner.transfer(highestPrice);\n            \n            // Se emiten varios eventos\n            emit Status(\"La subasta ha finalizado\");\n            emit Result(\"El ganador de la subasta ha sido:\", highestBidder);\n        } else {\n            revert(\"La subasta esta activa\");\n        }\n    }\n        \n    // ------------ Funciones de panico/emergencia ------------\n\n    // Funcion\n    // Nombre: stopAuction\n    // Uso:    Para la subasta y devuelve el dinero al maximo postor\n    function stopAuction() public{\n        require(msg.sender == originalOwner, \"You must be the original OWNER\");\n        // Finaliza la subasta\n        activeContract = false;\n        // Devuelve el dinero al maximo postor\n        if (highestBidder != address(0x0)){\n            highestBidder.transfer(highestPrice);\n        }\n        \n        // Se emite un evento\n        emit Status(\"La subasta se ha parado\");\n    }\n    \n    // ------------ Funciones que consultan datos (get) ------------\n\n    // Funcion\n    // Nombre: getAuctionInfo\n    // Logica: Consulta la description, la fecha de creacion y el tiempo de la subasta\n    function getAuctionInfo() public view returns (string memory, uint, uint){\n        return (description, createdTime, secondsToEnd);\n    }\n    \n    // Funcion\n    // Nombre: getHighestPrice\n    // Logica: Consulta el precio de la maxima puja\n    function getHighestPrice() public view returns (uint){\n        return (highestPrice);\n    }\n\n    // Funcion\n    // Nombre: getHighestBidder\n    // Logica: Consulta el maximo pujador de la subasta\n    function getHighestBidder() public view returns (address){\n        return (highestBidder);\n    }\n\n    // Funcion\n    // Nombre: getDescription\n    // Logica: Consulta la descripcion de la subasta\n    function getDescription() public view returns (string memory){\n        return (description);\n    }\n\n    // Funcion\n    // Nombre: getBasePrice\n    // Logica: Consulta el precio inicial de la subasta\n    function getBasePrice() public view returns (uint256){\n        return (basePrice);\n    }\n\n    // Funcion\n    // Nombre: getActiveContract\n    // Logica: Consulta si la subasta esta activa o no\n    function isActive() public view returns (bool){\n        return (activeContract);\n    }\n    \n}",
  "sourcePath": "/Users/der/Desktop/dapp-auction/auction-truffle-box/contracts/Auction.sol",
  "compiler": {
    "name": "solc",
    "version": "0.8.16+commit.07a7930e.Emscripten.clang"
  },
  "schemaVersion": "3.4.7",
  "updatedAt": "2022-11-17T19:02:37.303Z",
  "networkType": "ethereum",
  "devdoc": {
    "kind": "dev",
    "methods": {},
    "version": 1
  },
  "userdoc": {
    "kind": "user",
    "methods": {},
    "version": 1
  }
}